:100000000802002049010000C7000000C7000000EE
:10001000C7000000C7000000C7000000000000008B
:10002000000000000000000000000000C700000009
:10003000C700000000000000C7000000C70000006B
:100040005FF480300A49086008200A4908600F20E0
:100050000949086001200949086002200849086030
:100060000848006800F0FF0007490860FEE700BF8D
:1000700000E10F400080034014800340A080034053
:10008000A4800340A88003400000002030B4002575
:1000900013E050F8042BD30744BFA9F101039A18C9
:1000A000091F042942F8045BFAD213468C0744BFA7
:1000B00015809B1CC90748BF1D7050F8041B002900
:1000C000E7D130BC7047FEE710B5074979441831D5
:1000D000064C7C44163404E00A68081D1144884725
:1000E0000146A142F8D110BD080000001400000034
:1000F0009DFFFFFF04000000000000200000000042
:1001000000F00DF8002801D0FFF7DEFFAFF300800C
:100110000020AFF30080FFF793FF00F002F801200A
:10012000704700F001B800000746384600F002F8BA
:10013000FBE7000080B5AFF30080024A11001820F1
:10014000ABBEFBE726000200AFF30080AFF30080F8
:04015000FFF7D6FFE0
:0400000500000149AD
:00000001FF
